:100000000C9456000C9460000C9460000C946000FA
:100010000C9460000C9460000C9460000C946000E0
:100020000C9460000C9460000C9460000C946000D0
:100030000C9460000C9460000C9460000C946000C0
:100040000C9460000C9460000C9460000C946000B0
:100050000C9460000C9460000C9460000C946000A0
:100060000C9460000C9460000C9460000C94600090
:100070000C9460000C9460000C9460000C94600080
:100080000C9460000C9460000C9460000C94600070
:100090000C9460000C9460000C9460000C94600060
:1000A0000C9460000C9460000C94600011241FBE3E
:1000B000CFEFDAE0DEBFCDBF0E9462000C948E006D
:1000C0000C94000080E88093610081E080936100DF
:1000D000249A549A559A85985D982C9A2FEF84E328
:1000E0009CE0215080409040E1F700C000002C9837
:1000F0005C9A2FEF84E39CE0215080409040E1F730
:1001000000C000005C985D9A2FEF84E39CE02150D2
:1001100080409040E1F700C00000DECFF894FFCFB0
:00000001FF
